:020000040808EA
:1000000000000808E05E0808000005000A0005017D
:080010000402EA0300000000F5
:10001800FC55080809480A4908B5884205D0094A24
:10002800824202D0121A03F0DFF80748074A00217B
:10003800121A03F0FFF8064808BD00BF00040020AC
:10004800C45D0808F4040020F4040020C007002060
:10005800C007002070B501F0FBF9074B074C1E469E
:10006800E41AA4080025A54204D056F8253098477C
:100078000135F8E770BD00BF8C5D0808BC5D080855
:1000880000F014B808B500F009F9BDE8084001F01F
:10009800A1B900F087BC00F08DBC0078B0FA80F000
:1000A8004009704701230370704700001FB5002303
:1000B80000241A461946184600F03CFC2246214600
:1000C80002940194009401230F4800F01DFD0F4B8A
:1000D8001C7001F0EDFC4FF4165101F0DDFC01F04D
:1000E800E7FC0B4900F038FF01F0A4FD4FF416516E
:1000F80001F09AFD01F09EFD41F2883104B0BDE89F
:10010800104000F0AEBF00BFF80400207C050020BE
:100118001056080870B50546ADF5A56D1DAC3DB186
:1001280044F8045F5949002003F054FF0546F6E7F8
:100138001E9B1B7A232B40F09E80554C1F9B294603
:100148006360209B2198A36003F02AFF2946E060A2
:10015800229803F025FF29462061239803F020FF09
:1001680029466061249803F01BFF2946A06127985F
:1001780003F016FF29466062289803F011FF29460C
:10018800A062299803F00CFF2946E0622A9803F040
:1001980007FF294620632F9803F002FF2946606471
:1001A800309803F0FDFE2946A064319803F0F8FE6C
:1001B8002946E064329803F0F3FE2946E066339856
:1001C80003F0EEFE29462067349803F0E9FE6067E5
:1001D80001F06EFC0646606F02F002F9CDE91C01E1
:1001E800206F02F0FDF8CDE91A01E06E02F0F8F890
:1001F800CDE91801E06C02F0F3F8CDE91601A06C26
:1002080002F0EEF8CDE91401606C02F0E9F8CDE9EE
:100218001201206B02F0E4F8CDE91001E06A02F067
:10022800DFF8CDE90E01A06A02F0DAF8CDE90C0199
:10023800606A02F0D5F8CDE90A01A06902F0D0F8A9
:10024800CDE90801606902F0CBF8CDE90601206923
:1002580002F0C6F8CDE90401E06802F0C1F8CDE982
:100268000201A3680B4A009363682946304600F0F0
:10027800A9FE012006E001F01BFC074A294600F010
:10028800A1FE28460DF5A56D70BD00BF25560808CE
:10029800FC0400202856080832570808F0B5B04D6D
:1002A800BDB02E782F468EB3012E40F0578101F055
:1002B800FFFBAC4900F050FE4FF4FA7000F08AFFE3
:1002C80000F074FF074600F069FF4FF4616407FB14
:1002D8000444A54A04F5967390FBF2F404FB12005B
:1002E8001C1A01F0E5FB2346A04A002100F06AFE33
:1002F8009F4B22461B6831461EA800F053FC00F0B5
:10030800C5F99C4B186000232B7027E101F092FC83
:1003180001F08DFC4FF47A7000F05CFF01F08AFC6C
:100328004FF4165101F080FC4FF4FA7000F052FFC0
:1003380001F080FC41F2883100F093FE01F07AFC74
:100348008D4900F009FE01F075FC8C4C01461EA891
:1003580000F08AFE1EA9204600F0EFFC1EA800F05F
:100368005BFC01F0A5FB216800F0F6FD84491AA8A2
:1003780000F099FC83491EA800F095FC1EAA1AA952
:10038800204600F02DFD014616A800F0CBFC1EA863
:1003980000F042FC1AA800F03FFC01F089FB169916
:1003A80000F0DAFD169802F087FF774903F012FE95
:1003B8000446764800F096FF0546744800F0A8FF0A
:1003C80006462046FFF7A6FE714C002835D0304679
:1003D80002F006F8CDE91401284602F001F8CDE94B
:1003E8001201606F01F0FCFFCDE91001E06E01F031
:1003F800F7FFCDE90E01606C01F0F2FFCDE90C01C9
:10040800E06A01F0EDFFCDE90A01A06A01F0E8FF1A
:10041800CDE90801A06901F0E3FFCDE906016069B3
:1004280001F0DEFFCDE90401E06801F0D9FFCDE974
:100438000201A3680093636834E0304601F0D0FFFE
:10044800CDE91401284601F0CBFFCDE91201606F18
:1004580001F0C6FFCDE91001E06E01F0C1FFCDE962
:100468000E01606C01F0BCFFCDE90C01E06A01F0FF
:10047800B7FFCDE90A01A06A01F0B2FFCDE9080192
:10048800A06901F0ADFFCDE90601606901F0A8FFA0
:10049800CDE90401E06801F0A3FFCDE90201A368FA
:1004A80000933C4B78213C4A0DEB010000F09AFA8E
:1004B80001F0FEFA1EA900F04FFD00F0E7F82D4B01
:1004C80001261D46186000F04DFA08B900F042FAFE
:1004D80000F048FA044640B301F0EAFA2F4900F068
:1004E8003BFD2F4B1EAA19682E4B1AA81B788DF8B6
:1004F80000303C2301F0F6F81B9C7CB16368013B9B
:1005080063605BB9236820469B689847A368013BF2
:10051800A3601BB923682046DB6898474FF47A60CC
:1005280000F058FE01233B7015E000F0AFF82B688F
:10053800C01A4EF65F23984206D93E7001F0B8FA09
:10054800194900F009FD012401F0B2FA174900F039
:1005580003FD002CB7D016A800F05EFB3DB0F0BD3F
:100568007C050020225808088051010031580808ED
:10057800800500209C0500206A5708088405002093
:1005880070570808275608082656080894050020BA
:10059800FC040020CA57080890570808D2570808D2
:1005A800000400207D050020E2570808FF570808CE
:1005B8001F4B37B500251D601E4B01221A7000F035
:1005C8004DF84FF69C731C4C032063804FF6FF7365
:1005D8002570A38000F062F902A840F8045D2A465D
:1005E800294600F06BF8019B1E2B04D103232370CE
:1005F80011236580A3800021104800F033FE104AC3
:1006080010490E4801F038FC00210F4800F011FA9B
:100618000B4A0E490C4801F02FFC0D490D4800F01B
:1006280042FB074A0C490B4801F026FC03B030BDD9
:10063800800500207D050020A005002094050020ED
:10064800F40400208B120808F8040020590A08084E
:100658002756080884050020210C080808B5024B15
:100668001B681B68019308BDB001040808B5024B5C
:100678001B68DB69019308BDB401040808B5024B87
:100688001B685B68019308BD9C01040808B5024B10
:100698001B685B69019308BD9C01040808B5024BFF
:1006A8001B68DB69019308BD9C01040808B5024B6F
:1006B8001B689B6D019308BD9C01040808B5024B9B
:1006C8001B68DB6E019308BDB801040808B5024B2E
:1006D8001B681B6B019308BDD001040808B5024BC9
:1006E8001B689B69019308BDC401040808B5024B47
:1006F8001B681B6A019308BDC401040808B5024BB6
:100708001B685B6A019308BDC401040808B5024B65
:100718001B689B6A019308BDC401040808B5024B15
:100728001B68DB6A019308BDC401040808B5024BC5
:100738001B681B6B019308BDC401040808B5024B74
:100748001B685B6B019308BDC401040808B5024B24
:100758001B681B6C019308BDC401040808B5024B53
:100768001B68DB6C019308BDC401040808B5024B83
:100778001B685B69019308BDAC01040808B5024B0E
:100788001B689B69019308BDAC01040808B5024BBE
:100798001B68DB69019308BDAC01040808B5024B6E
:1007A8001B681B6A019308BDAC01040808B5024B1D
:1007B8001B685B6A019308BDAC01040808B5024BCD
:1007C8001B689B6A019308BDAC01040808B5024B7D
:1007D8001B68DB6A019308BDAC01040808B5024B2D
:1007E8001B681B6B019308BDAC01040808B5024BDC
:1007F8001B681B6C019308BDAC01040808B5024BCB
:100808001B689B6C019308BDAC01040808B5024B3A
:100818001B68DB6C019308BDAC01040808B5024BEA
:100828001B681B68019308BD1C00060808B5024B2D
:100838001B685B68019308BD1C00060808B5024BDD
:100848001B681B69019308BD1C00060808B5024B0C
:100858001B685B69019308BD1C00060808B5024BBC
:100868001B689B69019308BD1C00060808B5024B6C
:100878001B68DB69019308BD1C00060808B5024B1C
:100888001B681B6A019308BD1C00060808B5024BCB
:100898001B681B68019308BDA401040808B5024B36
:1008A8001B685B68019308BDA401040808B5024BE6
:1008B8001B685B69019308BDA401040808B5024BD5
:1008C8001B689B69019308BDA401040808B5024B85
:1008D8001B68DB6C019308BDA401040808B5024B32
:1008E8001B685B6D019308BDA401040808B5024BA1
:1008F8001B689B6D019308BDA401040808B5034B50
:100908001B68D3F89030019308BD0000A4010408C7
:1009180008B5034B1B68D3F89C30019308BD000051
:10092800A401040808B5024B1B681B69019308BDA4
:10093800C801040808B5024B1B689B69019308BDF0
:10094800C801040808B5024B1B689B68019308BDE1
:10095800CC01040808B5024B1B68DB68019308BD8D
:10096800CC01040808B5024B1B685B69019308BDFC
:10097800CC01040808B5024B1B681B6A019308BD2B
:10098800CC01040808B5024B1B681B6B019308BD1A
:10099800CC01040808B5024B1B68DB6B019308BD4A
:1009A800CC01040808B5024B1B681B68019308BDFD
:1009B800A001040808B5024B1B685B68019308BDD9
:1009C800A001040808B5024B1B689B68019308BD89
:1009D800A001040808B5024B1B689B69019308BD78
:1009E800A001040808B5024B1B68DB69019308BD28
:1009F800A001040808B5024B1B685B6A019308BD97
:100A0800A001040808B5024B1B68DB6A019308BD06
:100A1800A001040808B5024B1B681B6B019308BDB5
:100A2800A001040808B501F007FABDE8084001F084
:100A3800AAB910B50446017009B1FFF7F3FF2046C3
:100A480010BD08B501F0F8F9BDE8084001F0A4B9F7
:100A580010B5037804460BB1FFF7F3FF204610BD2D
:100A680010B504460068FFF7ECFF204610BD37B507
:100A780002AC0D4644F8040DFFF7D4FF01F0DCF991
:100A88006B2101F079F901F0D7F9036829469B68D1
:100A9800984701F0D1F9012101F071F901F0CCF981
:100AA80001231A466B2101F05EF901F0C5F90368CC
:100AB8005B69984705462046FFF7D2FFE8B203B0C6
:100AC80030BD73B502AC15460E4644F8040DFFF769
:100AD800A9FF01F0B1F96B2101F04EF901F0ACF971
:100AE800036831469B68984701F0A6F903682946D0
:100AF8009B68984701F0A0F9012101F040F92046D0
:100B0800FFF7AEFF02B070BDF7B50C4617460546B5
:100B18001E460190FFF786FF002C0CBF002480249E
:100B280017B144F04004E4B20EB144F020049DF83B
:100B380020300BB144F010049DF824300BB144F080
:100B480008049DF828300BB144F00404022128461B
:100B5800FFF78DFF00F00102224302212846FFF72C
:100B6800B0FF01A8FFF77CFF012003B0F0BD70477C
:100B780010B50446FFF78FFA204610BD70B504463D
:100B88000E46074B0025036040F80C5FFFF79EFDFB
:100B980030462671FFF76AFDA560204670BD00BF8C
:100BA8005858080810B50446084611461A46002346
:100BB800FFF784FE074B00221A704FF69C725A808A
:100BC8004FF6FF729A801A689B882260A38020469D
:100BD80010BD00BFA60500204FF69C7337B50D4C1D
:100BE800002563804FF6FF732846A3802570FFF722
:100BF80055FE02A840F8045D2A462946FFF75EFD27
:100C0800019B1E2B04D10323237011236580A3802D
:100C180003B030BDA605002010B504460068FFF7F4
:100C2800C9FE204610BD10B50446006808B1FFF79C
:100C3800C1FE00232360A360636010BD38B504467D
:100C48000D4600680131FFF7BDFE10B184E82100B0
:100C5800012038BD10B50368044613B143688B42C0
:100C680007D22046FFF7EAFF20B1A3680BB9226834
:100C78001370012010BD70B50E4611460446154686
:100C8800FFF7E8FF18B92046FFF7CDFF09E02A462D
:100C98003146A560206802F0A7FA2268A3680021FF
:100CA800D154204670BD38B5002304460360436024
:100CB800836003730D4639B1084602F018FB2946D4
:100CC80002462046FFF7D7FF204638BD38B505460F
:100CD80000680C4660B16A688B689A4206D3096856
:100CE80002F0E2FAA368AB6000230AE0FFF762FEB5
:100CF80023682B6063686B60A368AB600023236084
:100D08006360A36038BD884210B50B46044607D01F
:100D1800096819B19A68FFF7AEFF01E0FFF783FF92
:100D2800204610BD10B5044600230360436083606D
:100D38000373FFF7E8FF204610BD884210B504464C
:100D480001D0FFF7C3FF204610BD70B504460E461C
:100D580009B9002070BD6AB18368D5182946FFF724
:100D680079FF0028F5D02068A3683146184402F0BE
:100D78009BFAA560012070BD07B500238DF804100B
:100D8800012201A98DF80530FFF7DFFF03B05DF8F8
:100D980004FB2DE9F04115468A680F46CAB18368FD
:100DA800BBB19A4215D80668AB42304698BF03F1EA
:100DB800FF354FF0FF3406EB050840450DD839687C
:100DC80002F0B2FA48B1831B9D4228BF1C4601308D
:100DD800F3E74FF0FF30BDE8F0812046BDE8F08131
:100DE8002DE9F74FD0F808A0054688461646BAF10F
:100DF800000F78D0D1F808B0BBF1000F73D0976816
:100E08000468CBEB0707002F0ED12046D8F8001056
:100E180002F08AFA0446002865D0B268316802F008
:100E2800E3F9B0680444F0E722DAA146D8F80010E4
:100E3800204602F079FA8346A8B1C4EB000A21469D
:100E480052464846D14402F0CFF94846B268316864
:100E580002F0CAF9B368D8F808409944AB685C4412
:100E68003B44AB60E2E72146484602F01DFA3AE00F
:100E7800D1460B6819462046019302F055FA20B175
:100E880000EB0B04B944019BF4E7D1452BD06B6808
:100E9800994504D949462846FFF7D0FE18B3AA68F1
:100EA8004FF00009013A002A1DDB41462846FFF7AA
:100EB80070FF041E17DBD8F8083029682344AA6895
:100EC8001944D21AC81902F09AF9AB682A683B4447
:100ED800AB6002F803902868B2683168204402F0D9
:100EE80083F9621EDFE7284603B0BDE8F08FF8B546
:100EF80006460D468F180024BD420CD0336815F8FD
:100F0800011B9B6830469847002801DB0444F3E73F
:100F1800002C08BF04462046F8BD70B505460C46AF
:100F2800084649B102F0E3F92B68024621462846F3
:100F3800BDE87040DB68184770BD03689B681847B8
:100F480038B50D210546FFF7F8FF0A210446284663
:100F5800FFF7F3FF204438BD38B50546FFF7DDFF3E
:100F680004462846FFF7ECFF204438BD012A98BF05
:100F78000A2230B50B468BB000218DF824100DF1F4
:100F88002304B3FBF2F505FB1233DBB2092B94BF44
:100F980030333733DBB2214604F801392B46002DB4
:100FA800EFD1FFF7BAFF0BB030BD10B422B9036818
:100FB800C9B29B6810BC1847D2B210BCFFF7D6BFA5
:100FC800FFF7F3BF0CB42DE9F04387B000AF07F18A
:100FD800380454F8049B05460E4623464A46142115
:100FE800381D3C60FFF706FD132805D8391D284633
:100FF800FFF793FF044613E000F1080323F007030B
:10100800E846ADEB030D411C23464A4668463C6062
:10101800FFF7F0FC69462846FFF77FFF0446C54600
:101028001EB12846FFF78CFF044420461C37BD46F6
:10103800BDE8F04302B0704710B50446FFF726FB41
:10104800E060236820465B699847002808DAFFF7C4
:101058001DFBE368C01AA3689842F2D34FF0FF3033
:1010680010BD81607047000038B50D460749044639
:10107800FFF719FE2846FFF7DFFF002804DBC1B29F
:101088002046FFF779FEF5E7204638BD27560808C1
:1010980038B5046805467CB16368013B63605BB999
:1010A800236820469B689847A368013BA3601BB947
:1010B80023682046DB689847284638BD0B680360DC
:1010C80013B15A6801325A6070470000014A024B56
:1010D8001A60704713590808AC050020F0B5144B86
:1010E800144F1E68144B064418683B6806449E4219
:1010F8008BB01BD00AA840F8286D01F079FF044690
:10110800436901AD03F26C7343610FCC0FC50FCC7B
:101118000FC5D4F800E0094CC5F800E001AD0FCDCB
:101128000FC40FCD0FC43E60C4F800E00BB0F0BD93
:10113800E0050020DC050020D8050020B0050020CF
:1011480008B50020FFF71EFC28B1FFF70BFC80F064
:101158000100C0B208BD012008BD10B50020FFF78E
:10116800A5FA044668B9FFF791FB01280BD1204680
:10117800FFF7BCFB38B9FFF7E3FF30B9FFF7E2FB35
:10118800F9E7012010BD002010BDFFF7D9FF0020AE
:10119800FFF78CFA003018BF012010BD08B5FFF723
:1011A800DCFFBDE80840FFF779BA000008B5FFF793
:1011B800F5FFFFF793FF014B986808BDB0050020C5
:1011C800024B1A68024B1A60704700BF04040020E3
:1011D800D40500200021FFF769BB10B583680446D9
:1011E80013B1032201469847204610BD10B50446A6
:1011F800FFF7F3FF204610BD13B50B46044603C89E
:101208008DE8030093E8030084E803009DE80300E9
:1012180083E8030002B010BD034800238360034A3B
:10122800034900F029BE00BFE4050020F4040020B3
:10123800F511080808B5090941EA001001F026FD72
:10124800014901F02BFE08BD00004844006800F089
:101258009ABD10B50446016002710AB1FFF7F6FFA6
:10126800204610BD38B504460D4600F0E5FD2A4677
:1012780001462046FFF7EDFF204638BD006800F024
:101288008BBD10B5037904460BB1FFF7F7FF204675
:1012980010BDF8B504460F4616461D46FFF7D6FFA3
:1012A8002068362100F068FD2068394603689B688D
:1012B80098470121206800F062FD022236210123AF
:1012C800206800F050FD206803685B69984730701B
:1012D800206803685B69984728702046BDE8F84095
:1012E800FFF7CCBF07B5002202AB8DF8062003F844
:1012F800012D02210DF10602FFF7CBFF9DF8071023
:101308009DF8060003B05DF804EBFFF793BF0000FB
:1013180013B5002202AB03F8012D8DF80620042135
:101328000DF10602FFF7B5FF9DF8070001F046F83A
:101338000022084B01F0A8F801F09EFB04469DF836
:10134800060001F0A3FC0146204601F0EBFB02B0C9
:1013580010BD00BF0000703F08B5184B33B100F056
:10136800A7FB03681B69984700281EDC144B33B1A0
:1013780000F060FC03681B699847002818DC114BD3
:101388000BB1AFF30080104B0BB1AFF300800F4BE4
:101398000BB1AFF300800E4B7BB100F0B7FB0368D5
:1013A8001B699847002806DC08BDAFF30080DDE71D
:1013B800AFF30080E3E7AFF3008008BD0000000052
:1013C8000000000000000000000000000000000015
:1013D8000000000008B5FFF7BFFFFFF757F9014B02
:1013E800186008BDD40600200248034A0349121AAF
:1013F80001F0FABE0040024004400240C05D080807
:1014080007B5002300931A466FF07701FFF780FABB
:1014180003B05DF804FB000007B543880A2B08D029
:10142800502B09D1094B1B683BB103B05DF804EBA5
:101438001847FFF7E5FF06E0002300931A466FF010
:101448007701FFF765FA03B05DF804FBF4050020A7
:1014580038B5104C104D2368AB42104B0CBF01221D
:1014680000221A7002D0FFF7BFFF2560FFF706F9C8
:1014780001F0E8FE0A4B1BB1FFF700F9AFF300805B
:1014880000210748FFF786FABDE8384000210548E3
:10149800FFF734BA004002401E1C279AF8050020C6
:1014A800000000002114080870470020704710B59C
:1014B8000446FEF7F0FD204610BD08B508B1FFF759
:1014C800F6FF08BD38B5C468D4B12378022B02D121
:1014D800E068FFF76FFA65682DB12846FFF77DFED3
:1014E8002846FEF7D8FDA5682DB12846FFF775FEFA
:1014F8002846FEF7D0FD2046BDE83840FEF7CBBDB4
:1015080038BD13B5044691E8050000234B600B6015
:101518002060626001A801930093FFF7B9FD20469F
:1015280002B010BDF7B50C4606460F4654F8043B0A
:1015380002AD45F8083D214601A8FFF7BFFD294641
:101548003046FFF7DEFF01A8FFF7A2FD2046FFF7B0
:101558009FFD3846FEF79FFD304603B0F0BD826818
:1015680010B50AB900F08DFCC368BDE810401847F3
:1015780008B5006800F11001FFF7F1FF08BD8268A7
:1015880010B50AB900F07DFCC368BDE810401847E3
:1015980008B5006800F11001FFF7F1FF08BD38B584
:1015A800002383608B6804460D462BB102229847BE
:1015B800EB68E360AB68A360204638BD2DE9F041D5
:1015C8004FF69C7304684FF0020086B0B1F904200E
:1015D8008B8000230F688DF800300B60D4E84F1F14
:1015E800994203D1C4E8450F002DF7D102D08DF8F8
:1015F80000106BE014F10C051CBFE7602282BFF3FA
:101608005F8F18BF1F4601236370BFF35F8F04F11C
:101618000803002053E8006F43E80002002AF9D1CC
:10162800BFF35F8F002E51D0FFF750F920B1294644
:101638003046FFF794FF43E031466846FFF7AFFFB7
:10164800E068B4F9105008B101F036FE049010209B
:10165800ADF81450FEF71DFD054630B34FF00008F5
:10166800C0F808801820FEF714FD0446C0B1C0F881
:10167800088001466846FFF7BFFD029BA268A36089
:10168800039B0292E268E360BDF814300392A382E0
:101698004FF69C73ADF81430049BCDF8108023618D
:1016A8000D4B2C60EB600D4BAB600498FFF782F993
:1016B8006846FFF792FD002229460948FFF70EF910
:1016C8003046FFF78AFD3046FEF7E5FC3846FFF75F
:1016D80071F906B0BDE8F08179150808D517080832
:1016E800BD1C08082DE9F04F8BB007AD4FF0000B7B
:1016F8000646994614200C230F4690469DF850A0A4
:10170800C5F804B0C5F808B00793FEF7C2FC044654
:1017180038B180F800B080F801B0C0F804B0C0F863
:1017280008B00023102003940493FEF7B2FC28B1FC
:10173800012343608360234BC4600360224B049001
:1017480008200893FEF7A5FC044628B1039B04A9CA
:1017580040F8043BFFF7B2FC00955FFA8AF34A466B
:10176800414638460994FFF705F9B8B9039B5B78F9
:1017780003F0FF0293B94FF69C7305A903A80592DD
:10178800ADF81830FFF71AFF0598FFF713F905A809
:101798000999FFF7C7FE06A8FFF77AFC039B04A97F
:1017A80006A80593FFF78AFC05A93046FFF7A9FEAE
:1017B80006A8FFF76DFC04A8FFF76AFC30460BB0DB
:1017C800BDE8F08F6C5908083D190808022AF8B5D9
:1017D800044606D0032A17D0012A20D10B680360DB
:1017E8001DE018200E68FEF754FC054650B131463E
:1017F800FFF7D5FE3069B6F9147008B101F05CFD49
:101808002861AF8225600AE0046844B12069FFF7C7
:10181800D1F82046FFF7E1FC2046FEF73CFC00200B
:10182800F8BD38B5002383608B6804460D462BB19C
:1018380002229847EB68E360AB68A360204638BD96
:10184800022A70B5044606D0032A11D0012A17D1FE
:101858000B68036014E014200E68FEF71AFC0546B6
:1018680020B13146FFF7DDFF337C2B74256007E09C
:1018780004682CB12046FFF7B0FC2046FEF70BFCAD
:10188800002070BDF0B50C46BFF35F8F87B0002312
:1018980050E8006F40E80032002AF9D1BFF35F8FAB
:1018A800002E3ED01846FFF711F8074620B1214612
:1018B8003046FFF764FE2EE0314601A8FFF7B1FF7E
:1018C800237810208DF81430FEF7E3FB0546D0B1DD
:1018D80087601420FEF7DDFB044678B18760014677
:1018E80001A8FFF789FC039BA268A360049B0392ED
:1018F800E268E3609DF81430049223740A4B2C606C
:10190800EB600A4BAB6001A8FFF767FC0022294691
:101918000748FEF7E3FF3046FFF75FFC3046FEF767
:10192800BAFB07B0F0BD00BF9915080849180808A8
:10193800BD1C080830B5044685B00D4668461146FA
:10194800FFF7F0FD7CB124B228460DB101F0B4FCDC
:10195800029002A96846ADF80C40FFF72FFE0298E6
:10196800FFF728F81DE04FF0010200988DF80840B5
:10197800D0E84F3FA34203D1C0E8412F0029F7D157
:1019880002D08DF808300CE010F10C014FF0010383
:1019980018BF0373BFF35F8F043000F8033CFFF7F1
:1019A80071FF01A8FFF774FB05B030BD704710B593
:1019B8000446FEF770FB204610BDF8B50F4600F14F
:1019C8000806051D002416F8011D0A223846FFF7EF
:1019D800F7FAAE42044407D0002CF4D02E21384642
:1019E800FFF7ABFA0444EEE72046F8BD10B59DF8C2
:1019F800084044EA032343EA024242EA01614160A3
:101A080010BD000037B5044D05609DF818500095CD
:101A1800FFF7ECFF03B030BD8859080841747047E0
:101A280070470021007CFEF719BF0121007CFEF7FA
:101A380015BF007CFEF70ABF007CFEF7FFBE38B575
:101A48000446007C0D46FEF701FF002801DC607C9F
:101A580020B12946207CFEF709FF012038BD007C13
:101A6800FEF70CBF10B50446FEF715FB204610BD67
:101A780010B50446002363604FF47A73A360054BE6
:101A8800084623600123217463741146FEF7C6FEDD
:101A9800204610BD9C5908080022007CFEF7C6BEEF
:101AA80010B504461422002101F0C4FB204610BDE5
:101AB80030B50E4D87B001A8FFF7F2FF296811F085
:101AC800010410D12846FEF7E8FA60B101AA2146C0
:101AD8000748FFF7CDFF2846FEF7E4FA054A06490E
:101AE800034800F0C9F9024807B030BDFC050020E2
:101AF80004060020F4040020291A080810B504463A
:101B08001422002101F096FB204610BD10B50E4CA2
:101B180086B001A8FFF7F2FF2368DB0710D4204640
:101B2800FEF7BBFA60B101AA01210848FFF7A0FF40
:101B38002046FEF7B7FA064A0649044800F09CF921
:101B4800024806B010BD00BF00060020180600209D
:101B5800F4040020291A0808002211461046FEF74E
:101B6800E1BE000038B50B4C28252A460021204646
:101B780001F060FB4FF0FF3363602580064C074B94
:101B880020462C2540F8043B2A46002101F052FB50
:101B9800A58038BD5C0600202C060020CC5908081A
:101BA800704741747047007CFEF7D0BD007CFEF79B
:101BB800ADBD007CFEF7BABD007CFEF7AFBD007C72
:101BC800FEF7BCBD10B50446FEF765FA204610BD09
:101BD80070B5457C04460E4625B9007CFEF7B6FD77
:101BE800002805DD3146207CBDE87040FEF786BD43
:101BF800284670BD10B504460846114600226260AA
:101C08004FF47A72A260054A20742260012262743D
:101C18001A46FEF763FD204610BD00BFD8590808D4
:101C28000023007CFEF79ABD0022FFF7F9BF007C75
:101C3800FEF75CBDF8B5194C25684DB98420FEF750
:101C480028FA064618B18422294601F0F3FA2660DC
:101C5800134D2E684EB98420FEF71BFA074618B1BB
:101C68008422314601F0E6FA2F600E4F396811F0F0
:101C7800010611D13846FEF710FA68B122683146DC
:101C88002B680948FFF7B6FF3846FEF70BFA074AF4
:101C98000749054800F0F0F80348F8BDA006002001
:101CA800980600209C06002084060020F4040020EA
:101CB800A91B080810B5836804460BB900F0E1F8C1
:101CC800C3689847A3681BB103222146204698475A
:101CD8002046BDE81040FEF7DEB97047F8B5064665
:101CE80015460C468F18BC4206D0336814F8011B01
:101CF8009B6830469847F6E72846F8BD0022007CE6
:101D0800FEF74CBD0021007CFEF750BD0021007C91
:101D1800FEF754BD0021007CFEF758BD0021007C71
:101D2800FEF75CBD10B50446FEF7B5F9204610BDB8
:101D380010B5044608464FF47A73A360044B00219B
:101D4800207461602360FEF751FD204610BD00BF7E
:101D5800085A080813B50024007C0094FEF706FD15
:101D6800C0B202B010BDDBB2D2B2C9B2FFF7F2BF47
:101D78000022007CFEF702BDC9B2FFF7F9BF0022BE
:101D8800007CFEF703BD08B50021007CFEF736FD98
:101D9800B0FA80F0400908BD08B50021007CFEF7C4
:101DA80035FDB0FA80F0400908BD000070B5114E4D
:101DB800114D124C00213046FEF7E0FE3046104E21
:101DC8002A46214600F058F801213046FEF7D6FE93
:101DD80030460C4E2A46214600F04EF80221304685
:101DE800FEF7CCFE2A4621463046BDE8704000F09A
:101DF80043B800BFA4060020F4040020770B0808AD
:101E0800B4060020C406002013B5084C00231A4667
:101E1800194600932046FFF7F5FD2046044A054978
:101E280002B0BDE8104000F027B800BFD806002077
:101E3800F4040020B519080810B50B4C2368DB071B
:101E48000FD42046FEF729F958B102210748FFF7B9
:101E58006FFF2046FEF726F9054A0649034800F0B9
:101E68000BF8024810BD00BFF4060020E006002071
:101E7800F4040020E31C08080B460146184601F04C
:101E8800A9B808B5FEF7BEFD184B1A68D1075CBFA4
:101E980001221A60164B1A68D2075CBF01221A6029
:101EA800144B1A68D0075CBF01221A60124B1A68DB
:101EB800D1075CBF01221A60104B1A68D2075CBFB9
:101EC80001221A600E4B1A68D0075CBF01221A6003
:101ED8000C4B1A68D1075CBF01221A600A4B1A68BA
:101EE800D2075CBF01221A60704700BF14070020A8
:101EF800100700200C070020080700200407002016
:101F080000070020FC060020F8060020244B1A6871
:101F1800D0075CBF01221A60224B1A68D1075CBF48
:101F280001221A60204B1A68D2075CBF01221A608E
:101F38001E4B1A68D0075CBF01221A601C4B1A6836
:101F4800D1075CBF01221A601A4B1A68D2075CBF1E
:101F580001221A60184B1A68D0075CBF01221A6068
:101F6800164B1A68D1075CBF01221A60144B1A6815
:101F7800D2075CBF01221A60124B1A68D0075CBFF7
:101F880001221A60104B1A68D1075CBF01221A603F
:101F98000E4B1A68D2075CBF01221A60704700BF57
:101FA80044070020400700203C0700203807002095
:101FB80034070020300700202C07002028070020C5
:101FC80024070020200700201C07002018070020F5
:101FD800244B1A68D0075CBF01221A60224B1A688A
:101FE800D1075CBF01221A60204B1A68D2075CBF78
:101FF80001221A601E4B1A68D0075CBF01221A60C2
:102008001C4B1A68D1075CBF01221A601A4B1A6868
:10201800D2075CBF01221A60184B1A68D0075CBF50
:1020280001221A60164B1A68D1075CBF01221A6098
:10203800144B1A68D2075CBF01221A60124B1A6847
:10204800D0075CBF01221A60104B1A68D1075CBF29
:1020580001221A600E4B1A68D2075CBF01221A606F
:10206800704700BF74070020700700206C0700202D
:102078006807002064070020600700205C07002034
:102088005807002054070020500700204C07002064
:1020980048070020184B1A68D1075CBF01221A6054
:1020A800164B1A68D2075CBF01221A60144B1A68D3
:1020B800D0075CBF01221A60124B1A68D1075CBFB7
:1020C80001221A60104B1A68D2075CBF01221A60FD
:1020D8000E4B1A68D0075CBF01221A600C4B1A68B5
:1020E800D1075CBF01221A600A4B1A68D2075CBF8D
:1020F80001221A60704700BF940700209007002053
:102108008C07002088070020840700208007002013
:102118007C0700207807002081F0004102E000BF22
:1021280083F0004330B54FEA41044FEA430594EA8F
:10213800050F08BF90EA020F1FBF54EA000C55EACA
:10214800020C7FEA645C7FEA655C00F0E2804FEA9B
:102158005454D4EB5555B8BF6D420CDD2C4480EA7D
:10216800020281EA030382EA000083EA010180EAAD
:10217800020281EA0303362D88BF30BD11F0004FFB
:102188004FEA01314FF4801C4CEA113102D0404231
:1021980061EB410113F0004F4FEA03334CEA13336C
:1021A80002D0524263EB430394EA050F00F0A78084
:1021B800A4F10104D5F1200E0DDB02FA0EFC22FA7F
:1021C80005F2801841F1000103FA0EF2801843FA73
:1021D80005F359410EE0A5F120050EF1200E012A64
:1021E80003FA0EFC28BF4CF0020C43FA05F3C018A2
:1021F80051EBE37101F0004507D54FF0000EDCF11B
:10220800000C7EEB00006EEB0101B1F5801F1BD3C3
:10221800B1F5001F0CD349085FEA30004FEA3C0CC7
:1022280004F101044FEA445212F5800F80F09A80BD
:10223800BCF1004F08BF5FEA500C50F1000041EBC1
:10224800045141EA050130BD5FEA4C0C404141EBC5
:10225800010111F4801FA4F10104E9D191F0000FEC
:1022680004BF01460020B1FA81F308BF2033A3F16F
:102278000B03B3F120020CDA0C3208DD02F1140C66
:10228800C2F10C0201FA0CF021FA02F10CE002F1A1
:102298001402D8BFC2F1200C01FA02F120FA0CFC9A
:1022A800DCBF41EA0C019040E41AA2BF01EB0451E3
:1022B800294330BD6FEA04041F3C1CDA0C340EDCE1
:1022C80004F11404C4F1200220FA04F001FA02F324
:1022D80040EA030021FA04F345EA030130BDC4F1E2
:1022E8000C04C4F1200220FA02F001FA04F340EAD7
:1022F8000300294630BD21FA04F0294630BD94F088
:10230800000F83F4801306BF81F480110134013D6E
:102318004EE77FEA645C18BF7FEA655C29D094EADF
:10232800050F08BF90EA020F05D054EA000C04BF5D
:102338001946104630BD91EA030F1EBF0021002048
:1023480030BD5FEA545C05D14000494128BF41F0E7
:10235800004130BD14F580043CBF01F5801130BD4B
:1023680001F0004545F0FE4141F470014FF00000D6
:1023780030BD7FEA645C1ABF194610467FEA655C87
:102388001CBF0B46024650EA013406BF52EA033529
:1023980091EA030F41F4002130BD00BF90F0000F17
:1023A80004BF0021704730B54FF4806404F1320453
:1023B8004FF000054FF0000150E700BF90F0000F0C
:1023C80004BF0021704730B54FF4806404F1320433
:1023D80010F0004548BF40424FF000013EE700BF03
:1023E80042004FEAE2014FEA31014FEA02701FBF93
:1023F80012F07F4393F07F4F81F06051704792F065
:10240800000F14BF93F07F4F704730B54FF46074DE
:1024180001F0004521F0004120E700BF50EA010229
:1024280008BF704730B54FF000050AE050EA0102D6
:1024380008BF704730B511F0004502D5404261EB46
:1024480041014FF4806404F132045FEA915C3FF487
:10245800DCAE4FF003025FEADC0C18BF03325FEA20
:10246800DC0C18BF033202EBDC02C2F1200300FAD5
:1024780003FC20FA02F001FA03FE40EA0E0021FAFA
:1024880002F11444C1E600BF70B54FF0FF0C4CF4E4
:10249800E06C1CEA11541DBF1CEA135594EA0C0F9A
:1024A80095EA0C0F00F0DEF82C4481EA030621EAD5
:1024B8004C5123EA4C5350EA013518BF52EA033510
:1024C80041F4801143F4801338D0A0FB02CE4FF0C2
:1024D8000005E1FB02E506F00042E0FB03E54FF0F2
:1024E8000006E1FB03569CF0000F18BF4EF0010EEA
:1024F800A4F1FF04B6F5007F64F5407404D25FEAE6
:102508004E0E6D4146EB060642EAC62141EA555198
:102518004FEAC52040EA5E504FEACE2EB4F1FD0CDA
:1025280088BFBCF5E06F1ED8BEF1004F08BF5FEA58
:10253800500E50F1000041EB045170BD06F000460A
:1025480046EA010140EA020081EA0301B4EB5C04B7
:10255800C2BFD4EB0C0541EA045170BD41F48011AF
:102568004FF0000E013C00F3AB8014F1360FDEBFD4
:10257800002001F0004170BDC4F10004203C35DAB0
:102588000C341BDC04F11404C4F1200500FA05F333
:1025980020FA04F001FA05F240EA020001F00042D4
:1025A80021F0004110EBD37021FA04F642EB06014A
:1025B8005EEA430E08BF20EAD37070BDC4F10C0474
:1025C800C4F1200500FA04F320FA05F001FA04F238
:1025D80040EA020001F0004110EBD37041F1000124
:1025E8005EEA430E08BF20EAD37070BDC4F120052F
:1025F80000FA05F24EEA020E20FA04F301FA05F297
:1026080043EA020321FA04F001F0004121FA04F23E
:1026180020EA020000EBD3705EEA430E08BF20EA0E
:10262800D37070BD94F0000F0FD101F00046400048
:1026380041EB010111F4801F08BF013CF7D041EACA
:10264800060195F0000F18BF704703F000465200CE
:1026580043EB030313F4801F08BF013DF7D043EA9F
:102668000603704794EA0C0F0CEA135518BF95EA55
:102678000C0F0CD050EA410618BF52EA4306D1D1DC
:1026880081EA030101F000414FF0000070BD50EAFB
:10269800410606BF1046194652EA430619D094EA85
:1026A8000C0F02D150EA013613D195EA0C0F05D16F
:1026B80052EA03361CBF104619460AD181EA0301C3
:1026C80001F0004141F0FE4141F470014FF000007B
:1026D80070BD41F0FE4141F4780170BD70B54FF016
:1026E800FF0C4CF4E06C1CEA11541DBF1CEA135596
:1026F80094EA0C0F95EA0C0F00F0A7F8A4EB050478
:1027080081EA030E52EA03354FEA013100F088806E
:102718004FEA03334FF0805545EA131343EA126337
:102728004FEA022245EA111545EA10654FEA0026EC
:102738000EF000419D4208BF964244F1FD0404F5A5
:10274800407402D25B084FEA3202B61A65EB030501
:102758005B084FEA32024FF480104FF4002CB6EBBE
:10276800020E75EB030E22BFB61A754640EA0C003E
:102778005B084FEA3202B6EB020E75EB030E22BF7E
:10278800B61A754640EA5C005B084FEA3202B6EBBF
:10279800020E75EB030E22BFB61A754640EA9C007E
:1027A8005B084FEA3202B6EB020E75EB030E22BF4E
:1027B800B61A754640EADC0055EA060E18D04FEA0C
:1027C800051545EA16754FEA06164FEAC30343EAAC
:1027D80052734FEAC2025FEA1C1CC0D111F4801F79
:1027E8000BD141EA00014FF000004FF0004CB6E772
:1027F80011F4801F04BF01430020B4F1FD0C88BF11
:10280800BCF5E06F3FF6AFAEB5EB030C04BFB6EB1B
:10281800020C5FEA500C50F1000041EB045170BD0E
:102828000EF0004E4EEA113114EB5C04C2BFD4EB3B
:102838000C0541EA045170BD41F480114FF0000EBF
:10284800013C90E645EA060E8DE60CEA135594EA3B
:102858000C0F08BF95EA0C0F3FF43BAF94EA0C0F3E
:102868000AD150EA01347FF434AF95EA0C0F7FF4B3
:1028780025AF104619462CE795EA0C0F06D152EA07
:1028880003353FF4FDAE1046194622E750EA4106EB
:1028980018BF52EA43067FF4C5AE50EA41047FF4FC
:1028A8000DAF52EA43057FF4EBAE12E74FF0FF3C61
:1028B80006E000BF4FF0010C02E000BF4FF0010C32
:1028C8004DF804CD4FEA410C7FEA6C5C4FEA430CAB
:1028D80018BF7FEA6C5C1BD001B050EA410C0CBFFA
:1028E80052EA430C91EA030F02BF90EA020F00205C
:1028F800704710F1000F91EA030F58BF994208BFC3
:1029080090422CBFD8176FEAE37040F0010070477F
:102918004FEA410C7FEA6C5C02D150EA013C07D1D6
:102928004FEA430C7FEA6C5CD6D152EA033CD3D021
:102938005DF8040B704700BF8446104662468C461B
:102948001946634600E000BF01B5FFF7B7FF00284E
:1029580048BF10F1000F01BD4DF808EDFFF7F4FF77
:102968000CBF012000205DF808FB00BF4DF808ED02
:10297800FFF7EAFF34BF012000205DF808FB00BF25
:102988004DF808EDFFF7E0FF94BF012000205DF847
:1029980008FB00BF4DF808EDFFF7CEFF94BF0120FC
:1029A80000205DF808FB00BF4DF808EDFFF7C4FFF5
:1029B80034BF012000205DF808FB00BF4FEA410C3E
:1029C8007FEA6C5C02D150EA013C0AD14FEA430C21
:1029D8007FEA6C5C02D152EA033C02D14FF000005E
:1029E80070474FF0010070474FEA410212F500129C
:1029F80015D211D56FF47873B3EB625212D94FEA3E
:102A0800C12343F0004343EA505311F0004F23FA27
:102A180002F018BF404270474FF00000704750EA7C
:102A2800013005D111F0004008BF6FF00040704739
:102A38004FF00000704700BF4A0011D212F5001293
:102A480011D20DD56FF47873B3EB62520ED44FEAFE
:102A5800C12343F0004343EA505323FA02F070477E
:102A68004FF00000704750EA013002D14FF0FF30BC
:102A780070474FF0000070474FEA4102B2F1E0435F
:102A880024BFB3F5001CDCF1FE5C0DD901F0004C4D
:102A98004FEAC0024CEA5070B2F1004F40EB83009D
:102AA80008BF20F00100704711F0804F21D113F1C9
:102AB8003872BCBF01F00040704741F480114FEA02
:102AC8005252C2F11802C2F1200C10FA0CF320FA8B
:102AD80002F018BF40F001004FEAC1234FEAD323A8
:102AE80003FA0CFC40EA0C0023FA02F34FEA430312
:102AF800CCE77FEA625307D150EA01331EBF4FF09B
:102B0800FE4040F44000704701F0004040F0FE40B5
:102B180040F40000704700BF80F0004002E000BFB2
:102B280081F0004142001FBF5FEA410392EA030FB0
:102B38007FEA226C7FEA236C6AD04FEA1262D2EBFA
:102B48001363C1BFD218414048404140B8BF5B42FF
:102B5800192B88BF704710F0004F40F4000020F098
:102B68007F4018BF404211F0004F41F4000121F0AE
:102B78007F4118BF494292EA030F3FD0A2F10102F8
:102B880041FA03FC10EB0C00C3F1200301FA03F136
:102B980000F0004302D5494260EB4000B0F5000F59
:102BA80013D3B0F1807F06D340084FEA310102F118
:102BB8000102FE2A51D2B1F1004F40EBC25008BFCA
:102BC80020F0010040EA03007047490040EB000094
:102BD80010F4000FA2F10102EDD1B0FA80FCACF1C3
:102BE800080CB2EB0C0200FA0CF0AABF00EBC250C2
:102BF80052421843BCBFD0401843704792F0000FB0
:102C080081F4000106BF80F400000132013BB5E702
:102C18004FEA41037FEA226C18BF7FEA236C21D078
:102C280092EA030F04D092F0000F08BF08467047DD
:102C380090EA010F1CBF0020704712F07F4F04D1AB
:102C4800400028BF40F00040704712F100723CBFBE
:102C580000F50000704700F0004343F0FE4040F4E8
:102C6800000070477FEA226216BF08467FEA2363A6
:102C78000146420206BF5FEA412390EA010F40F491
:102C8800800070474FF0000304E000BF10F00043DD
:102C980048BF40425FEA000C08BF704743F09643C4
:102CA80001464FF000001CE050EA010208BF7047DF
:102CB8004FF000030AE000BF50EA010208BF704766
:102CC80011F0004302D5404261EB41015FEA010C7B
:102CD80002BF84460146002043F0B64308BFA3F173
:102CE8008053A3F50003BCFA8CF2083AA3EBC25355
:102CF80010DB01FA02FC634400FA02FCC2F1200274
:102D0800BCF1004F20FA02F243EB020008BF20F0AA
:102D18000100704702F1200201FA02FCC2F1200210
:102D280050EA4C0021FA02F243EB020008BF20EA05
:102D3800DC7070474FF0FF0C1CEAD0521EBF1CEA33
:102D4800D15392EA0C0F93EA0C0F6FD01A4480EA21
:102D5800010C400218BF5FEA41211ED04FF000630A
:102D680043EA501043EA5111A0FB01310CF0004036
:102D7800B1F5000F3EBF490041EAD3715B0040EA5C
:102D8800010062F17F02FD2A1DD8B3F1004F40EB2C
:102D9800C25008BF20F00100704790F0000F0CF0FF
:102DA800004C08BF49024CEA502040EA51207F3AC3
:102DB800C2BFD2F1FF0340EAC250704740F400009E
:102DC8004FF00003013A5DDC12F1190FDCBF00F08F
:102DD80000407047C2F10002410021FA02F1C2F13D
:102DE800200200FA02FC5FEA310040F1000053EAD9
:102DF8004C0308BF20EADC70704792F0000F00F027
:102E0800004C02BF400010F4000F013AF9D040EA2C
:102E18000C0093F0000F01F0004C02BF490011F4C0
:102E2800000F013BF9D041EA0C018FE70CEAD153BE
:102E380092EA0C0F18BF93EA0C0F0AD030F0004C3E
:102E480018BF31F0004CD8D180EA010000F00040F2
:102E5800704790F0000F17BF90F0004F084691F0B0
:102E6800000F91F0004F14D092EA0C0F01D14202EA
:102E78000FD193EA0C0F03D14B0218BF084608D1B3
:102E880080EA010000F0004040F0FE4040F40000FD
:102E9800704740F0FE4040F4400070474FF0FF0C90
:102EA8001CEAD0521EBF1CEAD15392EA0C0F93EAD7
:102EB8000C0F69D0A2EB030280EA010C49024FEA29
:102EC800402037D04FF0805343EA111143EA1013E2
:102ED8000CF000408B4238BF5B0042F17D024FF49A
:102EE800000C8B4224BF5B1A40EA0C00B3EB510F75
:102EF80024BFA3EB510340EA5C00B3EB910F24BF5E
:102F0800A3EB910340EA9C00B3EBD10F24BFA3EBE2
:102F1800D10340EADC001B0118BF5FEA1C1CE0D1AA
:102F2800FD2A3FF650AF8B4240EBC25008BF20F05D
:102F3800010070470CF0004C4CEA50207F32C2BFB1
:102F4800D2F1FF0340EAC250704740F400004FF04E
:102F58000003013A37E792F0000F00F0004C02BF7F
:102F6800400010F4000F013AF9D040EA0C0093F049
:102F7800000F01F0004C02BF490011F4000F013BA3
:102F8800F9D041EA0C0195E70CEAD15392EA0C0F0B
:102F980008D142027FF47DAF93EA0C0F7FF470AF43
:102FA800084676E793EA0C0F04D14B023FF44CAF86
:102FB80008466EE730F0004C18BF31F0004CCAD11B
:102FC80030F000427FF45CAF31F000437FF43CAF57
:102FD8005FE700BF10B5054C13462CB10A46014601
:102FE8000220AFF3008010BD204610BD0000000095
:102FF80038B5074B05461C68E36B1BB92420FDF761
:10300800D1FCE063E16B2846BDE8384000F002B827
:103018006C0400202DE9F0410C46804601F052FE78
:1030280021460746404601F051FE4669044606F22D
:103038006C76B30705D1642296FBF2F302FB1363A7
:103048004BB94FF4C87596FBF5F305FB1365B5FA54
:1030580085F35B0900E001235F4A302505FB032562
:1030680001F046F901F046F95C4B1B68F3B17B6847
:103078009E4205D13968D8F80030FA6941B90AE0AA
:10308800304601F08DF80028F4D14FF0FF330DE001
:10309800934208DB01E0934207DABA6B9342ACBF74
:1030A8000023012302E0002300E001232362236AB6
:1030B8003C20012B0CBFF96B396A4FF4616391FB1B
:1030C800F3F603FB161393FBF0F200FB1230616872
:1030D8002368891AA2681B1A921B3B2B2360616024
:1030E800A26003DD013161603C3B04E0002B03DAA0
:1030F800013961603C33236063683B2B03DD013297
:10310800A2603C3B04E0002B03DA013AA2603C33A6
:103118006360A368172B22DDE269183B0132E26184
:10312800A269A3600132062AC8BF0022A261E26830
:1031380023690132E26055F823108A4246DD0133E3
:103148000C2B08BF6369A2EB0102E26005BF0133E3
:1031580000222361226104BF6361E26136E0002B33
:1031680034DAE2691833013AE261A269A360013AEC
:1031780048BF0622A261E268013AE26032BB2369D5
:10318800013B01D423611DE00B23236163695A1EAF
:1031980012F0030F626103F26B7305D1642193FB94
:1031A800F1F201FB12324AB94FF4C87193FBF1F204
:1031B80001FB1233B3FA83F35B0900E0012303F543
:1031C800B673E361236955F82330E36001F091F8A1
:1031D8002046BDE8F08100BF945B0808B4070020D2
:1031E800004870477004002010B5431E0A449142FD
:1031F80004D011F8014B03F8014FF8E710BD8842DD
:1032080010B501EB020301D8421E0BE09842FBD235
:103218008118D21AD34204D013F8014D01F8014D98
:10322800F8E710BD994204D011F8014B02F8014F9C
:10323800F8E710BD03460244934202D003F8011B8D
:10324800FAE7704738B5124B05461C68A36BD3B92B
:103258001820FDF7A7FB43F20E33A06303804AF65C
:10326800CD33438041F2342383804EF26D63C380B3
:103278004DF6EC630381052343810B2383810122EF
:103288000023C0E90423A36B00221D615A6138BDE5
:103298006C04002010F8012B11F8013B012A28BF0B
:1032A8009A42F7D0D01A7047034611F8012B03F859
:1032B800012B002AF9D17047024B0146186800F02B
:1032C80003B800BF6C04002070B5064608460C46DB
:1032D80000F00DF8451C29463046FDF79BFB0646D5
:1032E80018B12A462146FFF77FFF304670BD0346D6
:1032F80013F8012B002AFBD1181A0138704730B592
:1033080082B1451E013915F8013F11F8014FA3425A
:1033180006D1EC431444E04201D0002BF3D11C4603
:10332800181B30BD104630BDF0B5037863B90B7873
:10333800002B18BF0020F0BD15F8012F62B114F85A
:10334800017F30469742F7D00346461C007810B1FB
:103358004D1E5C1EF0E7F0BD1846F0BD2DE9F041AA
:103368000F46904602F00EF804460D46B8F1000FDD
:1033780011D0C7F30A53C3F16B03002B0BDD1B05F8
:1033880003F17F55002405F5401522462B46FFF72B
:103398007BF8BDE8F08120462946BDE8F0810000B1
:1033A8002DE9F04F82460C469DB0002313921893E6
:1033B8004FF000084FF000091791179B1A780D2A53
:1033C80005D8092A13D2002A00F0AD8112E02B2A71
:1033D80004D02D2A04D0202A0CD108E0002200E0D5
:1033E80001220C925A1C17925B782BB99BE101338E
:1033F8001793E2E700230C93179D2B78302B5CD1B1
:103408006B78582B01D0782B4CD10C9BA84A019390
:1034180018AB009317A919AB504601F03CF910F00E
:103428000706044600F08585062E05D101350023E0
:1034380017950C9300F07DBD189A3AB135211AA85A
:1034480002F087F81899504601F00BFD062E22D895
:10345800DFE806F0040D08181D0D04004FF0000900
:10346800C84618E0DDF86880DDF86C9013E01B9B17
:10347800199A23F4801302F23342DDF8688043EA94
:10348800025908E0DFF82C924FF0000803E06FF0D3
:1034980000494FF0FF38210740F14B8549F00049BA
:1034A80000F047BD179B5A1C17925B78302BF9D058
:1034B800002B00F03E85012300E000230593179BB5
:1034C8000A22069300239B4602930493179D2E78A5
:1034D800A6F13003D9B2092911D8BBF1080FD5BF1D
:1034E8000499029902FB013302FB013305F101053E
:1034F800D4BF049302930BF1010B1795E6E75046EE
:10350800FFF76EFE07685046FFF76AFE0068FFF790
:10351800EEFE394602462846FFF7F1FE074628B177
:10352800002033465D46024601465AE05046FFF702
:1035380057FE0068FFF7DBFE179B1A1817921B5CF3
:10354800BBF1000F45D15846302B05D1179B0130F0
:103558005A1C17925B78F7E7A3F13102082A46D87C
:10356800179A0692024600200546303B00F10101F9
:1035780029D00A44294605EB000C0A2661450FD0DC
:10358800013101F1FF3EBEF1080F03DC049F7743D0
:103598000497F3E71029DEBF029F77430297EDE710
:1035A8002844082800F1010505DC04980A2101FBDC
:1035B8000033049306E0102DDFBF02980A2101FBB7
:1035C800003302930021179B581C17905B7808461C
:1035D80002E05D4638463A46A3F130010929C4D9CC
:1035E8000121652B01D0452B4FD16DB904E0652B26
:1035F80040F0AD840022012128B9059B002B00F082
:103608009280054600E00025179C631C1793637899
:103618002B2B06D02D2B02D00026039606E0012383
:1036280000E000230393A31C1793A378A3F13006AB
:10363800092E29D8302B04D1179B5E1C17965B786E
:10364800F8E7A3F13106082E1FD8A3F1300E179B17
:103658001F46179B5E1C17965B78A3F1300CBCF1D4
:10366800090F05D80A2606FB0E3EAEF1300EF0E72C
:10367800F61B082E44F61F6602DC7645A8BF764680
:10368800039F1FB1764201E017940026002D52D106
:10369800002840F04E84059A002A40F04A84002908
:1036A80041D14E2B20D007DC492B0AD03BE000BF8C
:1036B800F45B08080000F07F692B02D06E2B13D052
:1036C80031E0AA4917A801F017FA60B3179BA84977
:1036D800013B17A8179301F00FFA10B9179B013394
:1036E8001793DFF8A8921AE0A24917A801F004FA84
:1036F800C8B1179B1B78282B0FD11AAA9E4917A867
:1037080001F00DFA052808D11B9BDDF8688043F00D
:10371800FF4949F4E00900F00CBCDFF874924FF05F
:10372800000800F006BC139B1794002B00F00C84D3
:1037380000230C93FFE32C46BBF1000F08BFAB46F8
:103748000498102DA8BF1024B71AFEF727FE092CDD
:103758008046894613DD894B03EBC40353E91223E2
:10376800FEF792FE804602988946FEF717FE02464B
:103778000B4640464946FEF7D5FC804689460F2D44
:1037880033DC002F00F0D58322DD162F07DC7B4DBC
:10379800424605EBC7014B46D1E9000113E0C5F1EC
:1037A80025039F4221DC754CC5F10F0504EBC501CB
:1037B8007D1B4246D1E900014B4604EBC504FEF7E8
:1037C80063FED4E90023FEF75FFE80468946B0E336
:1037D80017F1160F09DB694D4046A5EBC703D3E97E
:1037E80000234946FEF77AFFEFE72C1B3C44002CE8
:1037F8005DDD14F00F010AD0604B424603EBC101B6
:10380800D1E900014B46FEF73FFE8046894634F079
:103818000F0400F0C180B4F59A7F0FDD4FF0000B64
:10382800CDF808B0CDF814B0CDF810B02223CAF8FE
:103838000030DFF858914FF0000889E140464946CA
:1038480000234F4E24110293012C0CDDE20704D50E
:10385800D6E90023FEF718FE0123029A641001320C
:1038680002920836F0E70BB180468946444B029A2B
:10387800A9F1547903EBC201D1E9000142464B4654
:10388800FEF702FE21F0004389460A461B0D3D491A
:103898001B058B428046C1D8A1F580118B4286BF9B
:1038A800DFF8F0904FF0FF3802F1547974E073D0EC
:1038B800644214F00F020AD0304B404603EBC203B7
:1038C8004946D3E90023FEF709FF804689462411BB
:1038D80062D01F2C08DD4FF0000BCDF808B0CDF8F2
:1038E80014B0CDF810B02CE14046494614F0100F42
:1038F8000CBF00236A23244E03930023002C09DD08
:10390800E20704D5D6E90023FEF7BEFD01236410C3
:103918000836F3E70BB180468946039BEBB1C9F340
:103928000A53C3F16B03002B494616DD1F2B0EDD2E
:10393800342BDEBF203B4FF0FF3202FA03F34FF087
:103948000008CCBF4FF05C7903EA010905E04FF0AD
:10395800FF3202FA03F303EA080800220023404674
:103968004946FEF7F9FF0028B5D117E0085C0808BA
:103978000B5C0808115C0808145C0808905C0808CF
:10398800585D08080000A07C285C08080000F07F4B
:103998000000F8FFFFFFEF7F00230393049B5A46C4
:1039A800009306992B46504601F0ADFA0590002881
:1039B8003FF434AF002FC7F10003A8BF00230D93D5
:1039C8004FF0000B27EAE7731293CDF808B0059B78
:1039D8005046596801F010FA049000283FF426AFC9
:1039E800059B0C301A6903F10C0102329200FFF7B3
:1039F800FBFB1AAB019319AB009342464B4650466A
:103A0800CDE9088901F02FFD189000283FF40EAF8A
:103A18000121504601F002FB029000283FF406AF56
:103A2800199B0399002BACBF0D9A129A1A9CACBF34
:103A3800D618D21AA3EB01032344B14903F1FF338B
:103A4800ACBF129A0D9E8B42C4F1360480F2858079
:103A5800C91A1F29C8BFAB4D4FF00107D4BF07FAD9
:103A680001F3ED1AA4EB0104D9BF0793002507FA67
:103A780005F507973719039BBE4214441C44334687
:103A8800A8BF3B46A342A8BF2346002BC2BFFF1ACC
:103A9800E41AF61A0D9B002B63D1002F7ADC129BD7
:103AA800002B40F08180002C00F38880002E00F36A
:103AB8008F80049A1899504601F005FC8346002827
:103AC8003FF4B4AEC3680024C4600299069301F0C1
:103AD800DEFBA04280F28B80069B002B40F0028226
:103AE800B8F1000F40F0FE81C9F31303002B40F03A
:103AF800F98129F000431B0D1B05B3F1D66F40F285
:103B0800F181DBF81430002B6CD059460122504665
:103B180001F06CFB0299834601F0B9FB002840F3E1
:103B2800E18129F00043039A1B0D1B05002A00F0D0
:103B38008D80B3F1D66F00F38980B3F15C7F00F319
:103B4800D38122234FF000084FF00009CAF8003053
:103B5800059B002B40F0D981EBE101230025079359
:103B680088E71A460299504601F0F2FA02900028B6
:103B78003FF45CAE0146189A504601F058FA069098
:103B880000283FF453AE1899504601F06AF9069B95
:103B9800189382E73A461899504601F027FB189087
:103BA80000287FF47CAF41E6129A0499504601F050
:103BB800CFFA049000287FF476AF37E622460499BE
:103BC800504601F013FB049000287FF46FAF2DE6F8
:103BD80032460299504601F009FB029000287FF412
:103BE80068AF23E6DBF81030012B8EDC7AE161D177
:103BF800069AC9F3130322B343494A468B422ED18E
:103C0800039B414663B1414B1340B3F1D46F07D8CE
:103C18001B0DC3F16B034FF0FF3000FA03F301E013
:103C28004FF0FF338B421AD139498A4202D101330E
:103C38003FF4FCAD354B4FF00008134003F58019F5
:103C480050E163B9B8F1000F09D16AE7A3F5801311
:103C58006FEA13594FF0FF386FEA095942E115B17D
:103C680015EA090F02E0079B13EA080F00F03A81F2
:103C7800069B039A4046494653B1FFF76FFB02463D
:103C88000B46DDE90801FEF74DFA8046894629E131
:103C9800FFF764FB02460B46DDE90801FEF740FA30
:103CA8000022002380468946FEF756FE00287FF44E
:103CB80048AF17E10299584601F023FC00224FF063
:103CC800804306460F46FEF75BFE00283FD0069B62
:103CD80013B100260F4F10E0B8F1000F03D1C9F35C
:103CE80013033BB91AE0B8F1010F03D1B9F1000F82
:103CF8003FF427AF084F00260024064D3CE000BFE4
:103D080002FCFFFFE2FBFFFFFFFF0F000000F07F58
:103D1800FFFFEF7F0000F03F0000F0BF00229A4B4A
:103D280030463946FEF722FE40B90022974B30460E
:103D38003946FEF7A9FB04460D4601E0069C934D63
:103D480005F1004314941593DDE9146714E08F4BD3
:103D5800002230463946FEF797FB069B04460D467F
:103D680023B901F100430E900F9303E002460B467E
:103D7800CDE90E23DDE90E6729F000431B0D1B0575
:103D88000793079A824B9A422BD1DDE90823A9F1C0
:103D9800547940464946CDE90A2301F0F3FA024630
:103DA8000B4630463946FEF76FFB42464B46FEF758
:103DB800B9F921F000431B0D764A1B059342804652
:103DC8000CD9754B0B9A9A4203D10A9B01333FF4E5
:103DD8002DADDFF8C4914FF0FF3872E001F154794E
:103DE80039E0039B3BB3079BB3F1D46F23D85EA3A1
:103DF800D3E9002320462946FEF7C2FDB8B129467B
:103E08002046FEF719FE002808BF0120FEF7C6FA73
:103E1800069B04460D4623B901F100431090119307
:103E280003E002460B46CDE91023DDE91067079A47
:103E380007F1D6639F1ADDE9080101F0A3FA0246EB
:103E48000B4630463946FEF71FFBDDE90823FEF72F
:103E580069F980468946039B9BBB29F000431B0DEB
:103E6800079A1B059A424E462BD129462046FEF753
:103E7800BBFDFEF7A3FA0B46024629462046FEF78D
:103E88004FF9069B04460D462BB9B8F1000F02D135
:103E9800C9F313067EB136A3D3E900232046294689
:103EA800FEF764FD88BB34A3D3E9002320462946E6
:103EB800FEF77AFD04E032A3D3E90023FEF756FDAE
:103EC80018BB1899504600F0CCFF0499504600F0F2
:103ED800C8FF0299504600F0C4FF5946504600F00A
:103EE800C0FF74E5039B83B12C4B40460B93002322
:103EF8000A934946DDE90A23FEF7C6FA8046894651
:103F080019B910B92223CAF800301899504600F0A0
:103F1800A8FF0499504600F0A4FF0299504600F00B
:103F2800A0FF0599504600F09CFF5946504600F006
:103F380098FF139B13B1179B139A13600C9B1BB12B
:103F4800424609F1004307E042464B4604E000259B
:103F58002A460121FFF747BB104619461DB0BDE8A8
:103F6800F08F00BFAFF300800000C0FFFFFFDF410C
:103F78009535A094FFFFDF3F35E5AF350000E03F02
:103F88009535A094FFFFCF3F0000F03F0000E03FD1
:103F98000000E07FFFFF9F7CFFFFEF7F00005039AC
:103FA80038B50B4B0A4601461868FFF7F9F902467F
:103FB8000B4604460D46FEF701FD20B10020BDE882
:103FC800384001F011BB20462946FEF755FD38BDA3
:103FD8006C040020174B2DE9F0411D680646AC6DB6
:103FE8000F46FCB95020FCF7DDFCA8658460AB6D7A
:103FF800046044601C61DC60AB6D9C615C61AB6D0E
:10400800DC629C62AB6D5C631C63AB6DDC639C63C0
:10401800AB6D5C641C64AB6DDC649C64AB6D1C773D
:10402800AB6D5C62AA6D39463046BDE8F0410123AC
:1040380000F002B86C040020F0B548B9106838B92F
:10404800F0BD17F8016B5EB1B542FAD12BB120462D
:1040580004460F4614F8015BF3E714600370F0BDE3
:104068004DB915602846F0BD17F8016BB54207D069
:10407800002EF9D11C4623460F4613F8015BF3E7DF
:1040880015B10021217000E02B461360F0BD00003F
:104098002DE9F0470E4680463B48D0F8009035465B
:1040A80015F8014B09EB0400407800F0080000F017
:1040B800FF0708B12E46F2E72D2C03D1B51C747802
:1040C800012703E02B2C04BF7478B51C13B1102B07
:1040D8000AD153E0302C4FD1287800F0DF0058285F
:1040E80045D16C78102302354FF0FF3CBCFBF3FC44
:1040F80003FB0CFA00266FEA0A0A304609EB040EA5
:104108009EF801E01EF0040F01D0303C0BE01EF0D9
:10411800030E1AD0BEF1010F0CBF4FF0370E4FF04F
:10412800570ECEEB0404A3420FDD002E08DB6045DA
:1041380006D801D1544503DC03FB0040012601E009
:104148004FF0FF3615F8014BD8E7002E07DA222387
:10415800C8F800304FF0FF302AB9BDE8F08707B142
:10416800404272B106B1691E1160BDE8F087302483
:10417800002BB9D10823B7E70A23B5E7302CABD019
:10418800B2E7BDE8F08700BF0804002013460A46DE
:10419800014602480068FFF77BBF00BF6C0400209F
:1041A8002DE9F74F044600F08DFD40F2B1739C42B3
:1041B80040F3968040F26D156FF4F663E318A4F2AD
:1041C800B2729B1005FB0235A4F26D726FF06303A7
:1041D80092FBF3F36FF4C8622B44A5184FF4C8722E
:1041E80094FBF2F795FBF2F502FB17471D44642395
:1041F80094FBF3F6B7FA87FE014603FB164600F177
:104208003803019304F0030344604FEA5E1E0093F1
:104218004FF0070C0B7A4A2B0ED14B69009AEC1819
:1042280002B906B927B93B2BD4BF0023012300E00C
:1042380000232344013B3FE0442B02D14B692B442C
:104248003AE0009B2BB9002E0CBFF0464FF0010856
:1042580000E0F046A946244B302202FB0838CC681F
:10426800A8F1040A0123A34204DA5AF804BF01336F
:10427800D944F8E709F1040393FBFCFBCBEBCB0A29
:10428800CAEB030A4B69012CB8BF0124B3EB0A0A35
:104298000B6904F1804403F1FF3304F1FF3448BF94
:1042A8000AF1070AC3EBC30358F824405344A34256
:1042B80001DB073BFBE74B448C690C4A02FB0343D9
:1042C8000C6A234441F81C3F019B9942A2D1C3695F
:1042D800826B9342ACBF002301230360012000E0FE
:1042E800002003B0BDE8F08F945B080880510100FE
:1042F80070477047014B186800F002B86C04002042
:104308002DE9F04F8DB0074600F0DCFCB0490446BB
:10431800384600F0CFFCAF4E054660B9AE4BAF4A09
:104328001860AF4B1860AF4B30681A605A60FCF7E2
:1043380041FB356048E1316879B93068FCF73AFBF0
:104348002846FEF7D4FF411C3846FCF763FB306073
:1043580048B12946FEF7A8FF05E0FEF79BFF0028B5
:1043680000F03281E9E72B780AAE3A2B08BF013515
:1043780033469D4A9D492846FCF72CFB002840F30C
:1043880023810A9BEF18EB5C2D2B03D101374FF0EB
:10439800FF3503E02B2B08BF013701250DF1200A5B
:1043A8000DF11E0B4FF000080396CDF808A00196FA
:1043B800CDF800B0334607AA8D493846ADF81E80BF
:1043C800ADF82080FCF706FB404540F3FD80BDF8C2
:1043D8001E20BDF820303C2101FB0233BDF81C2013
:1043E8004FF4616101FB02335D437F4B25627D4DD4
:1043F800DFF808922B600A9B4A461F447B493346E4
:104408003846FCF7E7FA404508DC2B68226A6B60FF
:10441800714B1A60724BC3F80080D5E00A9BC5F84F
:104428000490FD18FB5C2D2B03D101354FF0FF37AD
:1044380003E02B2B08BF013501270023ADF81C3002
:10444800ADF81E30ADF820300A930396CDF808A0D9
:104458000196CDF800B0334607AA65492846FCF70F
:10446800B9FA002804DC236AA3F56163E3630EE06C
:10447800BDF81E20BDF820303C2101FB0233BDF8F9
:104488001C204FF4616101FB02335F43E763274659
:104498000A9B4FF000091D442B782C2B08BF0135CF
:1044A80095F80080B8F14D0F26D10DF1260302933F
:1044B80009AB00930396019633460DF122024D494C
:1044C8002846FCF787FA03287ED1BDF822104B1E38
:1044D8000B2B79D8BDF82420531E042B74D8BDF8B3
:1044E8002630062B70D887F80880F9603A617B611E
:1044F8000A9B05EB03082AE0B8F14A0F06BF4346BA
:10450800013544230A220BA928460593FFF73EFEEE
:10451800DDF82C80ADF826004545059B14D14D23C8
:10452800B9F1000F07D123720323E360022323614B
:10453800C4F814900BE084F824300B23A362012301
:10454800E3620023236302E080B23B7278610223B6
:10455800ADF81C300023ADF81E30ADF820300A93BA
:1045680098F800302F2B0BD10396CDF808A00196B0
:10457800CDF800B0334607AA1F494046FCF72AFA8F
:10458800BDF81E20BDF820303C2101FB0233BDF8E8
:104598001C204FF4616101FB0233BB610A9D09F1E4
:1045A8000109B9F1020F454407F11C077FF474AF04
:1045B8006068FFF7F5FD226A074B1A60E36B9B1AE8
:1045C800074A18BF012313600DB0BDE8F08F00BF84
:1045D800505C0808B0070020B8070020535C0808A2
:1045E800B4070020A8040020A3070020575C08088F
:1045F8007A5C0808665C0808795C08089807002057
:10460800F0B506694B11B34200F1140527DA11F031
:104618001F0105EB860605EB830201D1294616E04A
:10462800141D55F823202B46C1F1200ECA40B44270
:1046380009D2276807FA0EF73A4343F8042B54F8CF
:10464800042BCA40F3E71A6052B1043308E0B242BF
:104658000B4605D252F8043B41F8043BF7E72B46DA
:104668005B1B9B10036103B94361F0BDA0F13003EC
:10467800092B01D820380AE0A0F16103052B01D8E5
:10468800473804E0A0F14103052B02D82738C0B20F
:104698007047002070472DE9F04F8BB08A4690464E
:1046A80006930290FEF79CFD03684FF0000B184636
:1046B8000393FEF71CFE039B0190034413F8013C8F
:1046C8000793DAF8003002331F4613F8010B30283D
:1046D80002D10BF1010BF7E7FFF7C8FF0446E0B979
:1046E800019A03993846FEF70AFE002834D1019B47
:1046F800F85CFE18FFF7BAFF80B3334618781F46F8
:10470800302803F10103F9D0FFF7B0FFB0FA80F5C4
:1047180034466D094FF0010B01E000252C463A465E
:10472800164630780132FFF7A1FF0028F8D1019A28
:1047380003993046FEF7E3FD50B954B9019BF418CC
:104748002246164630780132FFF790FF0028F8D14C
:1047580034B1A41BA40003E03E4600E00446012552
:104768003378502B01D0702B2AD173782B2B08D09B
:104778002D2B03D0711C4FF0000905E04FF0010903
:1047880001E04FF00009B11C0878FFF76FFF431EE6
:10479800DBB2182B14D8A0F1100211F8010FFFF7A3
:1047A80065FF431EDBB2182B04D80A2303FB020261
:1047B800103AF2E7B9F1000F00D05242144400E079
:1047C8003146CAF800102DB1BBF1000F14BF00200C
:1047D80006207CE12946F31B013B072B02DD013152
:1047E8005B10FAE7029800F007FB4FF00009054656
:1047F800CB46019B00F1140AC3F10103CDF810A0C8
:104808000893B7422FD2731E0593079A16F8013CF6
:1048180093420BD0BBF1200F16D1049BC3F8009034
:1048280004334FF000090493CB460DE0059B089A2A
:1048380013449F42EED81846019A03990993FEF74C
:104848005EFD099B68B1E5E716F8010CFFF70EFF5E
:1048580000F00F0000FA0BF0059B49EA00090BF184
:10486800040B1E46CDE7049840F8049BCAEB0000F1
:10487800801028614701484600F083FBD8F80060A3
:10488800381AB04226DD871B3946284600F07BFEE1
:10489800C8B17B1E591103F01F024FF001095AF8E5
:1048A800211009FA02F20A420ED04B4502DC4FF001
:1048B800020909E0B91E284600F065FE0028F6D076
:1048C8004FF0030900E0814639462846FFF798FE75
:1048D8003C440CE009DA371A29463A46029800F0B7
:1048E80085FC0546E41B00F1140A4FF00009D8F8CE
:1048F80008309C4208DD0298294600F0B2FA149A62
:1049080000231360A320E2E0D8F80400844253DABD
:10491800041BA6422EDCD8F80C30022B1AD0032B2D
:104928001CD0012B1DD1A6421BD1012E0BDCD8F8BF
:104938000430069A6220136001232B61CAF8003004
:10494800149B1D60C3E0711E284600F01CFE002861
:10495800EDD106E0159B002BE9D002E0159B002B5A
:10496800E5D10298294600F07CFA149A00231360D6
:104978005020ACE0671EB9F1000F06D13FB13946AF
:10498800284600F000FE814601E04FF001097A1147
:10499800012307F01F0703FA07F75AF822302146C8
:1049A8001F42284618BF49F00209361BFFF728FEA8
:1049B8000227D8F8044000E00127B9F1000F00F001
:1049C8008180D8F80C30022B0ED0032B10D0012B8D
:1049D80076D119F0020F73D0DAF8000049EA00091D
:1049E80019F0010F07D16BE0159BC3F10103159373
:1049F800159B002B64D0D5F810A005F114034FEADD
:104A08008A0903EB090100201A68B2F1FF3F02D0BE
:104A180001321A6020E043F8040B9942F4D8AB68DD
:104A28009A4512DB69680298013100F0E5F983467E
:104A38002A6905F10C01023292000C30FEF7D4FB12
:104A48002946029800F00DFA5D462B695A1C2A6126
:104A580005EB830301225A61022F05F1140211D1DB
:104A6800D8F80030013B9E4227D17111012306F08E
:104A78001F0603FA06F652F821301E420CBF022721
:104A880001271AE02B699A450ADA01212846FFF71F
:104A9800B7FDD8F8083001349C423FF72CAF0BE043
:104AA80016F01F0608D0914459F8040C00F069FA72
:104AB800C6F12006B042E8DB012747F0200701E0F5
:104AC80047F010073846149B1D60069B1C600BB00E
:104AD800BDE8F08FC2F10802920070B5C2F120065D
:104AE8004368056803FA06F42C43D340046040F891
:104AF800043F8842F4D370BD30B5036811F8014B08
:104B080001334CB11A78A2F14105192D98BF203212
:104B1800A242F3D0002030BD0360012030BD0B68F5
:104B28002DE9F04F5E1102EB860613F01F0318BF44
:104B38000436351F174600228246A8462C46914661
:104B480085B0D0F800B0019346F8042C00921BF809
:104B5800011F00293CD0084603920291FFF786FD09
:104B6800039A00BB0299202916D8009B9945EEDDCF
:104B7800444505D2072A03DC41462046FFF7AAFF31
:104B8800BC4223D90023A4F1040844F8043CCDF81E
:104B9800009044461A46DAE7292948D10BF1010367
:104BA800CAF8003014E00132082A09F1010906DDCB
:104BB800BC42CCD9002344F8043C0122043C2168BF
:104BC80000F00F0040EA01102060C0E70822BEE7AD
:104BD800B9F1000F2BD0444505D2072A03DC414622
:104BE8002046FFF777FFBC420CD93B4654F8042B0C
:104BF800A54243F8042BF9D2002243F8042B9D4226
:104C0800FBD20BE0019B4BB1C3F120024FF0FF3305
:104C1800D34056F8042C134046F8043C2B6843B99B
:104C2800BD4202D101232B6003E0043DF6E70420D6
:104C380000E0052005B0BDE8F08F00002DE9F84F31
:104C480007468B46904600F0D3FC194B1D689A46E0
:104C58003DB15C46234613F8012B42B13D2A1C4660
:104C6800F8D1384600F0C5FC0020BDE8F88FCBEB42
:104C78000404A94659F8040B0028F2D022465946E4
:104C8800FEF73DFB88B959F8043C1E191B5D3D2B06
:104C98000BD1DAF800303846ED1AAD10C8F80050DC
:104CA80000F0A7FC701CBDE8F88F4D46E1E700BF97
:104CB800F004002007B501AAFFF7C0FF03B05DF8B4
:104CC80004FB000000487047B00400200268464B0F
:104CD800F0B592FBF3F403FB1422002ABCBF02F5E3
:104CE800A83202F5C0724FF4616092FBF0F300FB4A
:104CF80013224FF03C008B6092FBF0F300FB132271
:104D080004F52F24ACBF04F66C2404F66B244B6026
:104D18000A600723E21C92FBF3F3344DC3EBC30391
:104D280094FBF5F5D31A48F6AC6240F2B4578B61A0
:104D38002F4B304803FB0544B4FBF2F2B4FBF7F306
:104D4800B4FBF0F02244D21A48F69466131A40F2E3
:104D58006D12B3FBF6F6B3FBF2F0B3FBF7F3344492
:104D6800E31A02FB103303EB830299240232B2FBED
:104D7800F4F25443A61C0524B6FBF4F40A2A34BF03
:104D880002266FF0090616444FF4C87202FB0505A7
:104D98005F1C012E98BF0135B3F5997FA7EB040777
:104DA80002D3A3F5997214E0820705D16424B0FBFD
:104DB800F4F204FB12024AB94FF4C872B0FBF2F4E1
:104DC80002FB1400B0FA80F2520900E001223B33E2
:104DD8001A44A5F26C750023CA614D610E61CF605B
:104DE8000B620846F0BD00BF80510100B13A0200D5
:104DF8004FC5FDFFB03A020070B5456A04460E463D
:104E08003DB91020FBF7CEFD606245608560056006
:104E1800C560656AEB6843B1636ADB6853F82600CE
:104E280078B1026843F8262017E0212204212046A1
:104E380000F0CBFB636AE860DB68002BECD1002054
:104E480070BD012101FA06F56A1D9200204600F0A6
:104E5800BCFB0028F3D04660856000230361C36073
:104E680070BD70B5446A06460D463CB91020FBF784
:104E780099FD7062446084600460C4603DB1736AE7
:104E88006A68DB6853F82210296043F8225070BD25
:104E98002DE9F04106460C460D691F4601F1140E36
:104EA8000023DEF80000013381B202FB0171000C1F
:104EB8000F0C02FB007089B201EB00419D424FEAE2
:104EC80010474EF8041BECDCD7B1A3689D4212DBF7
:104ED800616830460131FFF78FFF8046226904F18F
:104EE8000C01023292000C30FEF77EF92146304662
:104EF800FFF7B7FF444604EB850301355F61256181
:104F08002046BDE8F0812DE9F843064615461F46C0
:104F1800092208330C4693FBF2F3002101229A423E
:104F280002DA52000131FAE73046FFF765FF089BC5
:104F3800092D43614FF00103036111DD04F10908F4
:104F4800C1462C4419F8013B0146303B0A22304641
:104F5800FFF79EFFA145F5D108EB0504083C01E0E9
:104F68000A3409252D1B63199F4208DD14F8013BFB
:104F78000146303B0A223046FFF78AFFF3E7BDE8D7
:104F8800F883030C1B0413B90004102300E000236A
:104F980010F07F4F04BF0002083310F0704F04BFB9
:104FA8000001043310F0404F04BF80000233002892
:104FB80003DB420003D5581C704718467047202071
:104FC8007047036813F007020BD0D90722D49A0759
:104FD8004BBF5B089B08036003604CBF01200220A5
:104FE800704799B209B91B0C102213F0FF0F04BFC8
:104FF8001B0A0832190704BF1B090432990704BFAA
:105008009B080232D90702D45B0805D0013203603D
:1050180010467047002070472020704710B50C4696
:105028000121FFF7E9FE01224461026110BD2DE96B
:10503800F74F14460A69236988469A42BEBF0B4651
:10504800A0461C46D8F81070D4F81090D8F808304C
:10505800D8F8041007EB09069E42C8BF0131FFF7D4
:10506800CBFE00F114052B4605EB860C00226345A8
:1050780002D243F8042BFAE704F1140208F11401F0
:1050880002EB890301EB87070093009B019293428F
:1050980057D9B2F800B0BBF1000F23D08946AE460D
:1050A8004FF0000859F8044BBEF800A0A3B20BFB60
:1050B80003A34FEA144ADEF8004043444FEA144879
:1050C8000BFB0A84F24604EB13449BB243EA044305
:1050D8004F454FEA14484AF8043B01D9D646E1E760
:1050E800CEF80480019B0432B3F802A0BAF1000F95
:1050F80021D02C4689462B684FF00008B9F800E00B
:10510800B4F802B09BB20AFB0EBEA346F04443EAD1
:1051180008434BF8043B59F8043BB4F804E01B0C73
:105128000AFB03E34F4503EB18434FEA134801D941
:105138005C46E3E763600435A7E75CF8043D13B910
:10514800013E002EF9DC066103B0BDE8F08F0000D7
:105158002DE9F843154612F0030206460F4607D01C
:10516800214C013A002354F82220FFF791FE07460C
:10517800AD1036D0746A3CB91020FBF713FC70628E
:10518800446084600460C460D6F82480D8F808407D
:105198004CB940F271213046FFF740FF0446002326
:1051A800C8F8080003604FF00008EB070AD5394635
:1051B80022463046FFF73BFF814639463046FFF727
:1051C80050FE4F466D100CD0206808B10446ECE73D
:1051D800224621463046FFF72AFF2060C0F80080AB
:1051E800F4E73846BDE8F883805D08082DE9F04704
:1051F8000C460746914626694FEA621A56444968A2
:10520800A368751CAB4202DA01315B00FAE7384645
:10521800FFF7F2FD002380461A4600F114015345BA
:1052280003DA41F823200133F9E72AEAEA7320690F
:1052380001EB830319F01F0904F1140101EB800E3F
:1052480014D0C9F1200C002208689A4600FA09F027
:10525800024343F8042B51F8042B8E4522FA0CF232
:10526800F2D8CAF8042042B1B51C06E0043B51F854
:10527800042B8E4543F8042FF9D8013D3846C8F869
:1052880010502146FFF7EDFD4046BDE8F087036961
:105298000A6910B59B1A11D1920014301431831881
:1052A8000A4453F8044D52F8041D8C4202D007D327
:1052B800012010BD9842F4D3002010BD184610BD3F
:1052C8004FF0FF3010BD2DE9F8430C460746114654
:1052D80020461546FFF7DBFF061E08D13146384643
:1052E800FFF78AFD012303614661BDE8F883BCBF6F
:1052F80023462C4638466168BABF1D46012600265B
:10530800FFF77AFD2B69C660266905F1140904F1D7
:10531800140101EB860709EB830800F114054FF02F
:10532800000C51F8042B59F8044B93B29C44A3B2D7
:10533800240CC3EB0C03C4EB124202EB23429BB2D6
:105348004FEA224CC84543EA02428E4645F8042BF0
:10535800E7D8BE450ED25EF8041B8AB26244131425
:1053680003EB114392B242EA03424FEA234C45F859
:10537800042BEEE755F8043D0BB9013EFAE7066148
:10538800BDE8F883104B0B40A3F15073002B02DDEE
:105398000020194670475B421B15132B4FF0000085
:1053A8004FF0000104DC4FF4002242FA03F1704789
:1053B800143B1E2B4FF00102CEBF1346C3F11F034F
:1053C80002FA03F3184670470000F07FF8B5056944
:1053D80000F1140606EB850555F8044C2F1F2046EE
:1053E800FFF7CFFDC0F120030A280B6014DCC0F1E1
:1053F8000B0E24FA0EF1BE4241F07F5334BF55F82C
:10540800081C0021153004FA00F021FA0EF143F4CB
:10541800401340EA010223E0BE423ABFA5F1080763
:1054280055F8081C00210B3815D08440C0F1200520
:1054380044F07F5444F44014B74221FA05FE44EA8C
:105448000E038CBF57F8044C002401FA00F0EC401E
:1054580040EA040204E00A4644F07F5343F4401350
:1054680010461946F8BD2DE9F3411C460121904626
:10547800089E099DFFF7C0FCC4F31302C4F30A5445
:1054880007460CB142F480120192B8F1000F19D00E
:1054980002A840F8088DFFF794FD009B48B1019AD7
:1054A800C0F1200102FA01F10B43C2407B61019275
:1054B80000E07B61019B002B14BF02210121BB612D
:1054C800396107E001A8FFF77CFD019B01217B61A1
:1054D8003961203034B1A4F2334404443460C0F15B
:1054E800350009E0A0F2324007EB8103306018690B
:1054F800FFF747FDC0EB41102860384602B0BDE811
:10550800F0812DE9F743884669468146FFF75EFF3B
:105518000D46044601A94046FFF758FF0F460646C8
:10552800D9F81030D8F8102020469A1A9DE80A00B9
:10553800C91A01EB4213002BCCBF05EB0355A7EBAF
:10554800035732463B462946FDF7C8F803B0BDE885
:10555800F083013910B549111469013102F11403BE
:1055680000EB810103EB8404A342024604D253F802
:10557800042B40F8042BF7E700238A4202D242F8B2
:10558800043BFAE710BD00F1140200694B11984280
:1055980010B50CDB0CDD11F01F0109D052F82340C7
:1055A80024FA01F000FA01F18C420CD100E0034624
:1055B80002EB8303934204D953F8041D0029F9D060
:1055C80001E0002010BD012010BD38B502FB01F438
:1055D8002146FBF71FFA054618B122460021FDF7C0
:1055E80029FE284638BD0000004870470000C07FEB
:1055F800704770471D0008085D0008088900080802
:105608008D000808000000004177616B652E20546A
:1056180075726E2063656C6C206F6E2E0020090019
:105628000A5061727365642053656170484F582051
:105638000A20446174652D74696D652025732D25D4
:10564800730A204D61696E5F426174745F566F6CB6
:105658007420252E35660A20565F546865726D20C1
:10566800252E35660A20565F4645545F494E54201C
:10567800252E35660A20565F4645545F4558542006
:10568800252E35660A20447572616665745F546517
:105698006D702025322E35660A20565F507265736C
:1056A8007375726520252E35660A207048494E5458
:1056B80020252E35660A20704845585420252E3559
:1056C800660A204F3220252E35660A204F325F5356
:1056D800617475726174696F6E2020252E35660AB3
:1056E800204F70746F64655F54656D7020252E358A
:1056F800660A2053424533375F54656D7020252E66
:1057080035660A2053424533375F436F6E64202560
:105718002E35660A2053424533375F53616C696EF4
:1057280069747920252E35660A004572726F723ABF
:1057380020696D70726F706572206F7220696E6378
:105748006F6D706C65746520646174612072656347
:10575800656976652066726F6D2073656150484F84
:105768005800676C617374004572726F722E74789A
:105778007420665F72656164206572726F723A2088
:1057880046525F4F4B0D0A0025732C25732C252E8E
:1057980033662C252E35662C252E35662C252E3580
:1057A800662C252E35662C252E35662C252E35663D
:1057B8002C252E35662C252E3032662C252E30329F
:1057C8006600696E76616C6964007075626C6973F5
:1057D80068696E672064617461006D61782074691E
:1057E8006D6520666F722070756C697368696E6785
:1057F800207265616368004E6F74206D6178207453
:10580800696D652C2074727920616761696E2074F6
:105818006F207075626C69736800676F696E6720C6
:10582800746F20736C65657000536C6565702066D5
:105838006F72202564207365636F6E64730A00437A
:1058480070484F78310000000000000000000000A0
:10585800770B0808790B08086C6E00666E00636F9A
:1058680064650064657461696C00253031307520A9
:10587800005D20002564002C200028293A20002003
:105888005B00636F6465203D2000256900646574D2
:1058980061696C73203D2000626175640053657214
:1058A80069616C0055534253657269616C310074CB
:1058B80079706500706172616D00636D6400686E77
:1058C80064007374726D0066696C74006C766C00A9
:1058D80061646448616E646C65720072656D6F76B0
:1058E8006548616E646C657200656E756D48616EC1
:1058F800646C657273004A534F4E53747265616DE0
:105908004C6F6748616E646C657200617070006E00
:105918006F6E6500747261636500696E666F00770B
:1059280061726E006572726F720070616E696300F9
:10593800616C6C00252B3033643A253032750025B4
:10594800592D256D2D25645425483A254D3A255362
:10595800257A0061736374696D65000000000000BA
:1059680000000000B1140808B7140808CD1408088E
:10597800C3140808B3140808000000000000000061
:10598800C3190808B5190808B71908080000000065
:1059980000000000291A08086D1A0808471A0808A4
:1059A800F70E0808411A08082B1A0808331A0808BD
:1059B800671A08083B1A0808251A0808000000009A
:1059C80000000000611B0808000000000000000043
:1059D800A91B0808CD1B0808D91B0808F70E0808DA
:1059E800B51B0808C11B0808BB1B0808C71B08080B
:1059F800AB1B0808AF1B08080000000000000000EF
:105A0800E31C08082D1D0808051D0808E51C0808E2
:105A18000D1D0808151D08081D1D0808251D080866
:105A28000020202020202020202028282828282066
:105A3800202020202020202020202020202020205E
:105A480020881010101010101010101010101010C6
:105A580010040404040404040404041010101010B6
:105A68001010414141414141010101010101010180
:105A780001010101010101010101010110101010D2
:105A88001010424242424242020202020202020252
:105A980002020202020202020202020210101010A6
:105AA80020000000000000000000000000000000CE
:105AB80000000000000000000000000000000000DE
:105AC80000000000000000000000000000000000CE
